{
  "_format": "hh-sol-artifact-1",
  "contractName": "Titan",
  "sourceName": "contracts/Titan.sol",
  "abi": [
    {
      "inputs": [],
      "stateMutability": "nonpayable",
      "type": "constructor"
    },
    {
      "anonymous": false,
      "inputs": [
        {
          "indexed": true,
          "internalType": "address",
          "name": "owner",
          "type": "address"
        },
        {
          "indexed": true,
          "internalType": "address",
          "name": "approved",
          "type": "address"
        },
        {
          "indexed": true,
          "internalType": "uint256",
          "name": "tokenId",
          "type": "uint256"
        }
      ],
      "name": "Approval",
      "type": "event"
    },
    {
      "anonymous": false,
      "inputs": [
        {
          "indexed": true,
          "internalType": "address",
          "name": "owner",
          "type": "address"
        },
        {
          "indexed": true,
          "internalType": "address",
          "name": "operator",
          "type": "address"
        },
        {
          "indexed": false,
          "internalType": "bool",
          "name": "approved",
          "type": "bool"
        }
      ],
      "name": "ApprovalForAll",
      "type": "event"
    },
    {
      "anonymous": false,
      "inputs": [
        {
          "indexed": false,
          "internalType": "uint256",
          "name": "_fromTokenId",
          "type": "uint256"
        },
        {
          "indexed": false,
          "internalType": "uint256",
          "name": "_toTokenId",
          "type": "uint256"
        }
      ],
      "name": "BatchMetadataUpdate",
      "type": "event"
    },
    {
      "anonymous": false,
      "inputs": [
        {
          "indexed": false,
          "internalType": "uint256",
          "name": "_tokenId",
          "type": "uint256"
        }
      ],
      "name": "MetadataUpdate",
      "type": "event"
    },
    {
      "anonymous": false,
      "inputs": [
        {
          "indexed": true,
          "internalType": "address",
          "name": "from",
          "type": "address"
        },
        {
          "indexed": true,
          "internalType": "address",
          "name": "to",
          "type": "address"
        },
        {
          "indexed": true,
          "internalType": "uint256",
          "name": "tokenId",
          "type": "uint256"
        }
      ],
      "name": "Transfer",
      "type": "event"
    },
    {
      "inputs": [
        {
          "internalType": "address",
          "name": "to",
          "type": "address"
        },
        {
          "internalType": "uint256",
          "name": "tokenId",
          "type": "uint256"
        }
      ],
      "name": "approve",
      "outputs": [],
      "stateMutability": "nonpayable",
      "type": "function"
    },
    {
      "inputs": [
        {
          "internalType": "address",
          "name": "owner",
          "type": "address"
        }
      ],
      "name": "balanceOf",
      "outputs": [
        {
          "internalType": "uint256",
          "name": "",
          "type": "uint256"
        }
      ],
      "stateMutability": "view",
      "type": "function"
    },
    {
      "inputs": [
        {
          "internalType": "uint256",
          "name": "tokenId",
          "type": "uint256"
        }
      ],
      "name": "generateCharacter",
      "outputs": [
        {
          "internalType": "string",
          "name": "",
          "type": "string"
        }
      ],
      "stateMutability": "nonpayable",
      "type": "function"
    },
    {
      "inputs": [
        {
          "internalType": "uint256",
          "name": "tokenId",
          "type": "uint256"
        }
      ],
      "name": "getApproved",
      "outputs": [
        {
          "internalType": "address",
          "name": "",
          "type": "address"
        }
      ],
      "stateMutability": "view",
      "type": "function"
    },
    {
      "inputs": [
        {
          "internalType": "uint256",
          "name": "tokenId",
          "type": "uint256"
        }
      ],
      "name": "getLevels",
      "outputs": [
        {
          "internalType": "string",
          "name": "",
          "type": "string"
        }
      ],
      "stateMutability": "view",
      "type": "function"
    },
    {
      "inputs": [
        {
          "internalType": "uint256",
          "name": "tokenId",
          "type": "uint256"
        }
      ],
      "name": "getTokenURI",
      "outputs": [
        {
          "internalType": "string",
          "name": "",
          "type": "string"
        }
      ],
      "stateMutability": "nonpayable",
      "type": "function"
    },
    {
      "inputs": [
        {
          "internalType": "address",
          "name": "owner",
          "type": "address"
        },
        {
          "internalType": "address",
          "name": "operator",
          "type": "address"
        }
      ],
      "name": "isApprovedForAll",
      "outputs": [
        {
          "internalType": "bool",
          "name": "",
          "type": "bool"
        }
      ],
      "stateMutability": "view",
      "type": "function"
    },
    {
      "inputs": [],
      "name": "mint",
      "outputs": [],
      "stateMutability": "nonpayable",
      "type": "function"
    },
    {
      "inputs": [],
      "name": "name",
      "outputs": [
        {
          "internalType": "string",
          "name": "",
          "type": "string"
        }
      ],
      "stateMutability": "view",
      "type": "function"
    },
    {
      "inputs": [
        {
          "internalType": "uint256",
          "name": "tokenId",
          "type": "uint256"
        }
      ],
      "name": "ownerOf",
      "outputs": [
        {
          "internalType": "address",
          "name": "",
          "type": "address"
        }
      ],
      "stateMutability": "view",
      "type": "function"
    },
    {
      "inputs": [
        {
          "internalType": "address",
          "name": "from",
          "type": "address"
        },
        {
          "internalType": "address",
          "name": "to",
          "type": "address"
        },
        {
          "internalType": "uint256",
          "name": "tokenId",
          "type": "uint256"
        }
      ],
      "name": "safeTransferFrom",
      "outputs": [],
      "stateMutability": "nonpayable",
      "type": "function"
    },
    {
      "inputs": [
        {
          "internalType": "address",
          "name": "from",
          "type": "address"
        },
        {
          "internalType": "address",
          "name": "to",
          "type": "address"
        },
        {
          "internalType": "uint256",
          "name": "tokenId",
          "type": "uint256"
        },
        {
          "internalType": "bytes",
          "name": "data",
          "type": "bytes"
        }
      ],
      "name": "safeTransferFrom",
      "outputs": [],
      "stateMutability": "nonpayable",
      "type": "function"
    },
    {
      "inputs": [
        {
          "internalType": "address",
          "name": "operator",
          "type": "address"
        },
        {
          "internalType": "bool",
          "name": "approved",
          "type": "bool"
        }
      ],
      "name": "setApprovalForAll",
      "outputs": [],
      "stateMutability": "nonpayable",
      "type": "function"
    },
    {
      "inputs": [
        {
          "internalType": "bytes4",
          "name": "interfaceId",
          "type": "bytes4"
        }
      ],
      "name": "supportsInterface",
      "outputs": [
        {
          "internalType": "bool",
          "name": "",
          "type": "bool"
        }
      ],
      "stateMutability": "view",
      "type": "function"
    },
    {
      "inputs": [],
      "name": "symbol",
      "outputs": [
        {
          "internalType": "string",
          "name": "",
          "type": "string"
        }
      ],
      "stateMutability": "view",
      "type": "function"
    },
    {
      "inputs": [
        {
          "internalType": "uint256",
          "name": "",
          "type": "uint256"
        }
      ],
      "name": "tokenIdToLevels",
      "outputs": [
        {
          "internalType": "uint256",
          "name": "",
          "type": "uint256"
        }
      ],
      "stateMutability": "view",
      "type": "function"
    },
    {
      "inputs": [
        {
          "internalType": "uint256",
          "name": "tokenId",
          "type": "uint256"
        }
      ],
      "name": "tokenURI",
      "outputs": [
        {
          "internalType": "string",
          "name": "",
          "type": "string"
        }
      ],
      "stateMutability": "view",
      "type": "function"
    },
    {
      "inputs": [
        {
          "internalType": "uint256",
          "name": "tokenId",
          "type": "uint256"
        }
      ],
      "name": "train",
      "outputs": [],
      "stateMutability": "nonpayable",
      "type": "function"
    },
    {
      "inputs": [
        {
          "internalType": "address",
          "name": "from",
          "type": "address"
        },
        {
          "internalType": "address",
          "name": "to",
          "type": "address"
        },
        {
          "internalType": "uint256",
          "name": "tokenId",
          "type": "uint256"
        }
      ],
      "name": "transferFrom",
      "outputs": [],
      "stateMutability": "nonpayable",
      "type": "function"
    }
  ],
  "bytecode": "0x60806040523480156200001157600080fd5b50604080518082018252601081526f2a37b5b2b73137bab732102a34ba30b760811b602080830191825283518085019094526002845261151560f21b908401528151919291620000649160009162000083565b5080516200007a90600190602084019062000083565b50505062000166565b828054620000919062000129565b90600052602060002090601f016020900481019282620000b5576000855562000100565b82601f10620000d057805160ff191683800117855562000100565b8280016001018555821562000100579182015b8281111562000100578251825591602001919060010190620000e3565b506200010e92915062000112565b5090565b5b808211156200010e576000815560010162000113565b600181811c908216806200013e57607f821691505b602082108114156200016057634e487b7160e01b600052602260045260246000fd5b50919050565b611e3c80620001766000396000f3fe608060405234801561001057600080fd5b50600436106101215760003560e01c806342842e0e116100ad578063b88d4fde11610071578063b88d4fde14610259578063c6a4342f1461026c578063c87b56dd1461028c578063e985e9c51461029f578063f43785f9146102db57600080fd5b806342842e0e146101f75780636352211e1461020a57806370a082311461021d57806395d89b411461023e578063a22cb4651461024657600080fd5b80630daefed5116100f45780630daefed5146101a35780631249c58b146101b657806323b872dd146101be578063368004ed146101d15780633bb3a24d146101e457600080fd5b806301ffc9a71461012657806306fdde031461014e578063081812fc14610163578063095ea7b31461018e575b600080fd5b610139610134366004611533565b6102ee565b60405190151581526020015b60405180910390f35b610156610319565b60405161014591906115a8565b6101766101713660046115bb565b6103ab565b6040516001600160a01b039091168152602001610145565b6101a161019c3660046115f0565b6103d2565b005b6101566101b13660046115bb565b6104ed565b6101a161054b565b6101a16101cc36600461161a565b610594565b6101a16101df3660046115bb565b6105c5565b6101566101f23660046115bb565b6106cf565b6101a161020536600461161a565b610720565b6101766102183660046115bb565b61073b565b61023061022b366004611656565b61079b565b604051908152602001610145565b610156610821565b6101a1610254366004611671565b610830565b6101a16102673660046116c3565b61083b565b61023061027a3660046115bb565b60086020526000908152604090205481565b61015661029a3660046115bb565b610873565b6101396102ad36600461179f565b6001600160a01b03918216600090815260056020908152604080832093909416825291909152205460ff1690565b6101566102e93660046115bb565b610984565b60006001600160e01b03198216632483248360e11b14806103135750610313826109a6565b92915050565b606060008054610328906117d2565b80601f0160208091040260200160405190810160405280929190818152602001828054610354906117d2565b80156103a15780601f10610376576101008083540402835291602001916103a1565b820191906000526020600020905b81548152906001019060200180831161038457829003601f168201915b5050505050905090565b60006103b6826109f6565b506000908152600460205260409020546001600160a01b031690565b60006103dd8261073b565b9050806001600160a01b0316836001600160a01b031614156104505760405162461bcd60e51b815260206004820152602160248201527f4552433732313a20617070726f76616c20746f2063757272656e74206f776e656044820152603960f91b60648201526084015b60405180910390fd5b336001600160a01b038216148061046c575061046c81336102ad565b6104de5760405162461bcd60e51b815260206004820152603d60248201527f4552433732313a20617070726f76652063616c6c6572206973206e6f7420746f60448201527f6b656e206f776e6572206f7220617070726f76656420666f7220616c6c0000006064820152608401610447565b6104e88383610a55565b505050565b606060006104fa83610984565b60405160200161050a9190611829565b604051602081830303815290604052905061052481610ac3565b6040516020016105349190611a81565b604051602081830303815290604052915050919050565b610559600780546001019055565b600061056460075490565b90506105703382610c17565b6000818152600860205260408120556105918161058c816106cf565b610c31565b50565b61059e3382610d03565b6105ba5760405162461bcd60e51b815260040161044790611ac6565b6104e8838383610d81565b6000818152600260205260409020546001600160a01b03166106295760405162461bcd60e51b815260206004820152601c60248201527f506c656173652075736520616e206578697374696e6720746f6b656e000000006044820152606401610447565b336106338261073b565b6001600160a01b0316146106955760405162461bcd60e51b815260206004820152602360248201527f596f75206d757374206f776e207468697320746f6b656e20746f20747261696e604482015262081a5d60ea1b6064820152608401610447565b6000818152600860205260409020546106af816001611b29565b6000838152600860205260409020556106cb8261058c816106cf565b5050565b606060006106dc83610ee5565b6106e5846104ed565b6040516020016106f6929190611b41565b604051602081830303815290604052905061071081610ac3565b6040516020016105349190611c20565b6104e88383836040518060200160405280600081525061083b565b6000818152600260205260408120546001600160a01b0316806103135760405162461bcd60e51b8152602060048201526018602482015277115490cdcc8c4e881a5b9d985b1a59081d1bdad95b88125160421b6044820152606401610447565b60006001600160a01b0382166108055760405162461bcd60e51b815260206004820152602960248201527f4552433732313a2061646472657373207a65726f206973206e6f7420612076616044820152683634b21037bbb732b960b91b6064820152608401610447565b506001600160a01b031660009081526003602052604090205490565b606060018054610328906117d2565b6106cb338383610f82565b6108453383610d03565b6108615760405162461bcd60e51b815260040161044790611ac6565b61086d84848484611051565b50505050565b606061087e826109f6565b60008281526006602052604081208054610897906117d2565b80601f01602080910402602001604051908101604052809291908181526020018280546108c3906117d2565b80156109105780601f106108e557610100808354040283529160200191610910565b820191906000526020600020905b8154815290600101906020018083116108f357829003601f168201915b50505050509050600061092e60408051602081019091526000815290565b9050805160001415610941575092915050565b81511561097357808260405160200161095b929190611c65565b60405160208183030381529060405292505050919050565b61097c84611084565b949350505050565b60008181526008602052604090205460609061099f81610ee5565b9392505050565b60006001600160e01b031982166380ac58cd60e01b14806109d757506001600160e01b03198216635b5e139f60e01b145b8061031357506301ffc9a760e01b6001600160e01b0319831614610313565b6000818152600260205260409020546001600160a01b03166105915760405162461bcd60e51b8152602060048201526018602482015277115490cdcc8c4e881a5b9d985b1a59081d1bdad95b88125160421b6044820152606401610447565b600081815260046020526040902080546001600160a01b0319166001600160a01b0384169081179091558190610a8a8261073b565b6001600160a01b03167f8c5be1e5ebec7d5bd14f71427d1e84f3dd0314c0f7b2291e5b200ac8c7c3b92560405160405180910390a45050565b6060815160001415610ae357505060408051602081019091526000815290565b6000604051806060016040528060408152602001611dc76040913990506000600384516002610b129190611b29565b610b1c9190611c94565b610b27906004611cb6565b67ffffffffffffffff811115610b3f57610b3f6116ad565b6040519080825280601f01601f191660200182016040528015610b69576020820181803683370190505b509050600182016020820185865187015b80821015610bd5576003820191508151603f8160121c168501518453600184019350603f81600c1c168501518453600184019350603f8160061c168501518453600184019350603f8116850151845350600183019250610b7a565b5050600386510660018114610bf15760028114610c0457610c0c565b603d6001830353603d6002830353610c0c565b603d60018303535b509195945050505050565b6106cb8282604051806020016040528060008152506110e1565b6000828152600260205260409020546001600160a01b0316610cac5760405162461bcd60e51b815260206004820152602e60248201527f45524337323155524953746f726167653a2055524920736574206f66206e6f6e60448201526d32bc34b9ba32b73a103a37b5b2b760911b6064820152608401610447565b60008281526006602090815260409091208251610ccb92840190611484565b506040518281527ff8e1a15aba9398e019f0b49df1a4fde98ee17ae345cb5f6b5e2c27f5033e8ce79060200160405180910390a15050565b600080610d0f8361073b565b9050806001600160a01b0316846001600160a01b03161480610d5657506001600160a01b0380821660009081526005602090815260408083209388168352929052205460ff165b8061097c5750836001600160a01b0316610d6f846103ab565b6001600160a01b031614949350505050565b826001600160a01b0316610d948261073b565b6001600160a01b031614610dba5760405162461bcd60e51b815260040161044790611cd5565b6001600160a01b038216610e1c5760405162461bcd60e51b8152602060048201526024808201527f4552433732313a207472616e7366657220746f20746865207a65726f206164646044820152637265737360e01b6064820152608401610447565b826001600160a01b0316610e2f8261073b565b6001600160a01b031614610e555760405162461bcd60e51b815260040161044790611cd5565b600081815260046020908152604080832080546001600160a01b03199081169091556001600160a01b0387811680865260038552838620805460001901905590871680865283862080546001019055868652600290945282852080549092168417909155905184937fddf252ad1be2c89b69c2b068fc378daa952ba7f163c4a11628f55a4df523b3ef91a4505050565b60606000610ef283611114565b600101905060008167ffffffffffffffff811115610f1257610f126116ad565b6040519080825280601f01601f191660200182016040528015610f3c576020820181803683370190505b5090508181016020015b600019016f181899199a1a9b1b9c1cb0b131b232b360811b600a86061a8153600a8504945084610f7557610f7a565b610f46565b509392505050565b816001600160a01b0316836001600160a01b03161415610fe45760405162461bcd60e51b815260206004820152601960248201527f4552433732313a20617070726f766520746f2063616c6c6572000000000000006044820152606401610447565b6001600160a01b03838116600081815260056020908152604080832094871680845294825291829020805460ff191686151590811790915591519182527f17307eab39ab6107e8899845ad3d59bd9653f200f220920489ca2b5937696c31910160405180910390a3505050565b61105c848484610d81565b611068848484846111ec565b61086d5760405162461bcd60e51b815260040161044790611d1a565b606061108f826109f6565b60006110a660408051602081019091526000815290565b905060008151116110c6576040518060200160405280600081525061099f565b806110d084610ee5565b604051602001610534929190611c65565b6110eb83836112f9565b6110f860008484846111ec565b6104e85760405162461bcd60e51b815260040161044790611d1a565b60008072184f03e93ff9f4daa797ed6e38ed64bf6a1f0160401b83106111535772184f03e93ff9f4daa797ed6e38ed64bf6a1f0160401b830492506040015b6d04ee2d6d415b85acef8100000000831061117f576d04ee2d6d415b85acef8100000000830492506020015b662386f26fc10000831061119d57662386f26fc10000830492506010015b6305f5e10083106111b5576305f5e100830492506008015b61271083106111c957612710830492506004015b606483106111db576064830492506002015b600a83106103135760010192915050565b60006001600160a01b0384163b156112ee57604051630a85bd0160e11b81526001600160a01b0385169063150b7a0290611230903390899088908890600401611d6c565b602060405180830381600087803b15801561124a57600080fd5b505af192505050801561127a575060408051601f3d908101601f1916820190925261127791810190611da9565b60015b6112d4573d8080156112a8576040519150601f19603f3d011682016040523d82523d6000602084013e6112ad565b606091505b5080516112cc5760405162461bcd60e51b815260040161044790611d1a565b805181602001fd5b6001600160e01b031916630a85bd0160e11b14905061097c565b506001949350505050565b6001600160a01b03821661134f5760405162461bcd60e51b815260206004820181905260248201527f4552433732313a206d696e7420746f20746865207a65726f20616464726573736044820152606401610447565b6000818152600260205260409020546001600160a01b0316156113b45760405162461bcd60e51b815260206004820152601c60248201527f4552433732313a20746f6b656e20616c7265616479206d696e746564000000006044820152606401610447565b6000818152600260205260409020546001600160a01b0316156114195760405162461bcd60e51b815260206004820152601c60248201527f4552433732313a20746f6b656e20616c7265616479206d696e746564000000006044820152606401610447565b6001600160a01b038216600081815260036020908152604080832080546001019055848352600290915280822080546001600160a01b0319168417905551839291907fddf252ad1be2c89b69c2b068fc378daa952ba7f163c4a11628f55a4df523b3ef908290a45050565b828054611490906117d2565b90600052602060002090601f0160209004810192826114b257600085556114f8565b82601f106114cb57805160ff19168380011785556114f8565b828001600101855582156114f8579182015b828111156114f85782518255916020019190600101906114dd565b50611504929150611508565b5090565b5b808211156115045760008155600101611509565b6001600160e01b03198116811461059157600080fd5b60006020828403121561154557600080fd5b813561099f8161151d565b60005b8381101561156b578181015183820152602001611553565b8381111561086d5750506000910152565b60008151808452611594816020860160208601611550565b601f01601f19169290920160200192915050565b60208152600061099f602083018461157c565b6000602082840312156115cd57600080fd5b5035919050565b80356001600160a01b03811681146115eb57600080fd5b919050565b6000806040838503121561160357600080fd5b61160c836115d4565b946020939093013593505050565b60008060006060848603121561162f57600080fd5b611638846115d4565b9250611646602085016115d4565b9150604084013590509250925092565b60006020828403121561166857600080fd5b61099f826115d4565b6000806040838503121561168457600080fd5b61168d836115d4565b9150602083013580151581146116a257600080fd5b809150509250929050565b634e487b7160e01b600052604160045260246000fd5b600080600080608085870312156116d957600080fd5b6116e2856115d4565b93506116f0602086016115d4565b925060408501359150606085013567ffffffffffffffff8082111561171457600080fd5b818701915087601f83011261172857600080fd5b81358181111561173a5761173a6116ad565b604051601f8201601f19908116603f01168101908382118183101715611762576117626116ad565b816040528281528a602084870101111561177b57600080fd5b82602086016020830137600060208483010152809550505050505092959194509250565b600080604083850312156117b257600080fd5b6117bb836115d4565b91506117c9602084016115d4565b90509250929050565b600181811c908216806117e657607f821691505b6020821081141561180757634e487b7160e01b600052602260045260246000fd5b50919050565b6000815161181f818560208601611550565b9290920192915050565b7f3c73766720786d6c6e733d22687474703a2f2f7777772e77332e6f72672f323081527f30302f73766722207072657365727665417370656374526174696f3d22784d6960208201527f6e594d696e206d656574222076696577426f783d223020302033353020333530604082015261111f60f11b60608201527f3c7374796c653e2e62617365207b2066696c6c3a2077686974653b20666f6e7460628201527f2d66616d696c793a2073657269663b20666f6e742d73697a653a20313470783b608282015269103e9e17b9ba3cb6329f60b11b60a28201527f3c726563742077696474683d223130302522206865696768743d22313030252260ac8201526f103334b6361e91313630b1b59110179f60811b60cc8201527f3c7465787420783d223530252220793d223430252220636c6173733d2262617360dc8201527f652220646f6d696e616e742d626173656c696e653d226d6964646c652220746560fc820152723c3a16b0b731b437b91e9136b4b2323632911f60691b61011c820152662bb0b93934b7b960c91b61012f820152600061099f611a6f6119d7611a69611a556119ea610136880184565b661e17ba32bc3a1f60c91b815260070190565b7f3c7465787420783d223530252220793d223530252220636c6173733d2262617381527f652220646f6d696e616e742d626173656c696e653d226d6964646c65222074656020820152723c3a16b0b731b437b91e9136b4b2323632911f60691b604082015260530190565b6702632bb32b6399d160c51b815260080190565b8661180d565b651e17b9bb339f60d11b815260060190565b7f646174613a696d6167652f7376672b786d6c3b6261736536342c000000000000815260008251611ab981601a850160208701611550565b91909101601a0192915050565b6020808252602d908201527f4552433732313a2063616c6c6572206973206e6f7420746f6b656e206f776e6560408201526c1c881bdc88185c1c1c9bdd9959609a1b606082015260800190565b634e487b7160e01b600052601160045260246000fd5b60008219821115611b3c57611b3c611b13565b500190565b607b60f81b81527f226e616d65223a2022546f6b656e626f756e6420546974616e20230000000000600182015260008351611b8381601c850160208801611550565b61088b60f21b601c918401918201527f226465736372697074696f6e223a2022546f6b656e626f756e64204e50437320601e82015274195b98589b195908189e48115490cb4d8d4d4c488b605a1b603e820152691134b6b0b3b2911d101160b11b60538201528351611bfc81605d840160208801611550565b601160f91b605d9290910191820152607d60f81b605e820152605f01949350505050565b7f646174613a6170706c69636174696f6e2f6a736f6e3b6261736536342c000000815260008251611c5881601d850160208701611550565b91909101601d0192915050565b60008351611c77818460208801611550565b835190830190611c8b818360208801611550565b01949350505050565b600082611cb157634e487b7160e01b600052601260045260246000fd5b500490565b6000816000190483118215151615611cd057611cd0611b13565b500290565b60208082526025908201527f4552433732313a207472616e736665722066726f6d20696e636f72726563742060408201526437bbb732b960d91b606082015260800190565b60208082526032908201527f4552433732313a207472616e7366657220746f206e6f6e20455243373231526560408201527131b2b4bb32b91034b6b83632b6b2b73a32b960711b606082015260800190565b6001600160a01b0385811682528416602082015260408101839052608060608201819052600090611d9f9083018461157c565b9695505050505050565b600060208284031215611dbb57600080fd5b815161099f8161151d56fe4142434445464748494a4b4c4d4e4f505152535455565758595a6162636465666768696a6b6c6d6e6f707172737475767778797a303132333435363738392b2fa2646970667358221220f5fc53069ffa37ece7126463e6d7aefd88ed3d93f8faee8037f97a2aaaf0fef564736f6c63430008090033",
  "linkReferences": {},
  "deployedLinkReferences": {}
}